:020000040800F2
:100000000080012091050008B10E0008BF0E000815
:10001000C50E0008CB0E0008D10E0008000000003D
:10002000000000000000000000000000D70E0008E3
:10003000E50E000800000000F30E0008010F0008A4
:10004000E1050008E1050008E1050008E1050008F8
:10005000E1050008E1050008E1050008E1050008E8
:10006000E1050008E1050008E1050008E1050008D8
:10007000E1050008E1050008E1050008E1050008C8
:10008000E1050008E1050008E105000800000000A6
:10009000000000000000000000000000E105000872
:1000A000E1050008E1050008E10500080D0F000862
:1000B000E1050008E1050008E1050008E105000888
:1000C000E1050008E1050008E1050008E105000878
:1000D000E1050008210F0008E1050008000000000C
:1000E000E1050008E1050008E10500080000000046
:1000F000000000000000000000000000E105000812
:1001000000000000E1050008E1050008E105000825
:1001100000000000000000000000000000000000DF
:10012000E1050008E1050008E1050008E105000817
:10013000E1050008000000000000000000000000D1
:10014000000000000000000000000000E1050008C1
:10015000E1050008E1050008E1050008E1050008E7
:10016000E1050008E10500080000000000000000B3
:10017000000000000000000000000000000000007F
:1001800000000000E1050008000000000000000081
:04019000E10500087D
:1001A00010B5054C237833B9044B13B10448AFF3B1
:1001B00000800123237010BD7000002000000000AB
:1001C000BC50000808B5034B1BB103490348AFF30B
:1001D000008008BD0000000074000020BC50000832
:1001E00001F0FF01102A2BDB10F0070F08D010F8E8
:1001F000013B013A8B422DD010F0070F42B3F6D1EC
:10020000F0B441EA012141EA014122F007047FF004
:1002100000070023F0E80256083C85EA010586EA5B
:10022000010685FA47F5A3FA87F586FA47F6A5FA97
:1002300087F68EB9EED1F0BC01F0FF0102F00702A3
:1002400032B110F8013B013A83EA010313B1F8D14E
:100250000020704701387047002D06BF354603382F
:10026000073815F0010F07D1013015F4807F02BF68
:10027000013015F4C03F0130F0BC0138704700BFB9
:1002800053B94AB9002908BF00281CBF4FF0FF31FD
:100290004FF0FF3000F07AB9ADF1080C6DE904CEF3
:1002A00000F006F8DDF804E0DDE9022304B0704751
:1002B0002DE9F0478C460D460446089E002B51D18F
:1002C0008A4217466DD9B2FA82FEBEF1000F0BD0FA
:1002D000CEF1200C01FA0EF520FA0CFC02FA0EF712
:1002E0004CEA050C00FA0EF44FEA174A250CBCFB49
:1002F000FAF81FFA87F90AFB18CC45EA0C4508FB07
:1003000009F3AB420AD9ED1908F1FF3280F02381DD
:10031000AB4240F22081A8F102083D44ED1AA4B29C
:10032000B5FBFAF00AFB105544EA054400FB09F955
:10033000A14509D9E41900F1FF3380F00A81A145F4
:1003400040F2078102383C44A4EB090440EA08402B
:100350000021002E61D024FA0EF400233460736073
:10036000BDE8F0878B4207D9002E54D0002186E8E3
:1003700021000846BDE8F087B3FA83F1002940F078
:100380008E80AB4202D3824200F2FA80841A65EB7F
:1003900003050120AC46002E3FD086E81010BDE8D2
:1003A000F08712B90127B7FBF2F7B7FA87FEBEF163
:1003B000000F34D1EB1B3A0C1FFA87FC0121B3FB71
:1003C000F2F8250C02FB183345EA03450CFB08F351
:1003D000AB4207D9ED1908F1FF3002D2AB4200F26F
:1003E000D1808046ED1AA3B2B5FBF2F002FB1055A6
:1003F00043EA05440CFB00FCA44507D9E41900F1CD
:10040000FF3302D2A44500F2B8801846A4EB0C04D6
:1004100040EA08409DE731463046BDE8F087CEF11E
:10042000200405FA0EF307FA0EF720FA04F83A0C46
:1004300025FA04F448EA0308B4FBF2F14FEA184540
:1004400002FB11441FFA87FC45EA044501FB0CF34B
:10045000AB4200FA0EF409D9ED1901F1FF3080F03A
:100460008A80AB4240F2878002393D44EB1A1FFA82
:1004700088F5B3FBF2F002FB103345EA034500FBBD
:100480000CF3AB4207D9ED1900F1FF386FD2AB4244
:100490006DD902383D44EB1A40EA01418FE7C1F1C2
:1004A000200722FA07F88B4005FA01F448EA030313
:1004B00020FA07FE4FEA134CFD404EEA040EB5FB4E
:1004C000FCF94FEA1E440CFB19551FFA83F844EA65
:1004D000054509FB08F4AC4202FA01F200FA01FA00
:1004E00008D9ED1809F1FF3043D2AC4241D9A9F146
:1004F00002091D442D1B1FFA8EFEB5FBFCF00CFB00
:1005000010554EEA054400FB08F8A04507D9E41849
:1005100000F1FF3529D2A04527D902381C4440EA12
:100520000940A4EB0804A0FB02894C45C6464D4691
:1005300015D312D056B1BAEB0E0364EB050404FADE
:1005400007F7CB401F43CC40376074600021BDE803
:10055000F0871846F8E69046E0E6C245EAD2B8EBE6
:10056000020E69EB03050138E4E72846D7E7404669
:1005700091E78146BEE7014678E702383C4445E70B
:10058000084608E7A8F102083D442BE7704700BF82
:10059000DFF834D0002103E00C4B5B5843500431AA
:1005A0000B480C4B42189A42F6D30B4A02E0002348
:1005B00042F8043B094B9A42F9D300F0BBFC03F02C
:1005C000ABFD00F08BF8704700800120C45100089B
:1005D000000000207000002070000020B801002002
:1005E000FEE790B587B000AFF860B9607A6000238D
:1005F0007B610AE0BC68631CBB60AFF3008003460C
:10060000DBB223707B6901337B617A697B689A4234
:10061000F0DB7B6818461C37BD4690BD80B584B0C2
:1006200000AF7860114B1B68002B02D10F4B104AB2
:100630001A600E4B1B68FB600C4B1A687B681344F6
:100640006A46934207D903F061FD02460C2313600A
:100650004FF0FF3306E0054B1A687B681344034AEA
:100660001360FB6818461037BD4680BD8C00002023
:10067000B801002080B483B000AF78604FF0FF3342
:1006800018460C37BD465DF8047B704780B483B0D4
:1006900000AF786039603B684FF400525A60002325
:1006A00018460C37BD465DF8047B704780B483B0B4
:1006B00000AF7860012318460C37BD465DF8047B17
:1006C000704780B485B000AFF860B9607A600023ED
:1006D00018461437BD465DF8047B704780B500AFFF
:1006E00000F05EFC00F09CF800F008FA00F0DCF985
:1006F00000F030F900F000F900F0ACF94FF47A7036
:1007000000F0C0FC202000F089FA3E4B5B789BB2E1
:100710001B029AB23B4B1B789BB213439AB23A4BE3
:100720001A80394B1B881946384803F021FD642094
:1007300000F0A8FC222000F071FA324B1B789BB22B
:100740001B029AB22F4B5B789BB213439AB22E4B8B
:100750001A802D4B1B8819462D4803F009FD642093
:1007600000F090FC242000F059FA264B1B789BB235
:100770001B029AB2234B5B789BB213439AB2224B73
:100780001A80214B1B881946224803F0F1FC642093
:1007900000F078FC262000F041FA1A4B1B789BB23F
:1007A0001B029AB2174B5B789BB213439AB2164B5B
:1007B0001A80154B1B881946174803F0D9FC642092
:1007C00000F060FC282000F029FA642000F05AFCB8
:1007D0002A2000F023FA642000F054FC2C2000F0C2
:1007E0001DFA642000F04EFC2E2000F017FA642061
:1007F00000F048FC0A2003F0D3FC084803F040FD59
:1008000080E700BF2C0100206C010020D4500008BC
:10081000DC500008E4500008EC500008F4500008D8
:1008200080B594B000AF07F12003302200211846B4
:1008300003F096FC07F10C0300221A605A609A60DC
:10084000DA601A610023BB60294A294B1B6C43F014
:1008500080531364264B1B6C03F08053BB60BB6852
:1008600000237B60234A234B1B6823F4404343F45B
:10087000004313601F4B1B6803F440437B607B689D
:1008800002233B620123FB6210233B630223BB6311
:100890000023FB6310233B644FF4A8737B640423A1
:1008A000BB640723FB6407F12003184601F0ECFD4D
:1008B0000346002B01D000F0D7F90F23FB60022381
:1008C0003B6100237B614FF48053BB610023FB61DC
:1008D00007F10C030221184602F018F80346002B1A
:1008E00001D000F0C1F900BF5037BD4680BD00BF48
:1008F000003802400070004080B500AF124B134A30
:100900001A60114B124A5A600F4B00229A600E4B2C
:100910000022DA600C4B4FF480421A610A4B00222D
:100920005A61094B00229A61074B0022DA61064B9B
:1009300000221A62044800F091FE0346002B01D009
:1009400000F092F900BF80BD9800002000540040E4
:10095000A086010080B590B000AF07F138030022F7
:100960001A605A6007F11C0300221A605A609A60EC
:10097000DA601A615A619A613B4600221A605A6035
:100980009A60DA601A615A619A61304B304A1A6093
:100990002E4B00225A602D4B00229A602B4B0022D6
:1009A000DA602A4B00221A61284B00225A6127483C
:1009B00002F09AF90346002B01D000F055F900230C
:1009C000BB630023FB6307F1380319461F4802F09D
:1009D0006DFD0346002B01D000F046F90023FB61BA
:1009E00000233B6200237B620023BB620023FB6287
:1009F00000233B6300237B6307F11C03002219469D
:100A0000124802F0A5FA0346002B01D000F02CF9A1
:100A100000233B6000237B600023BB600023FB605E
:100A200000233B614FF400537B610023BB613B46D5
:100A30001946064802F07FFD0346002B01D000F066
:100A400013F900BF4037BD4680BD00BF3001002014
:100A50000000014080B500AF114B124A1A60104BE4
:100A60004FF4E1325A600E4B00229A600C4B002288
:100A7000DA600B4B00221A61094B0C225A61084BB9
:100A800000229A61064B0022DA61054802F0C0FD9F
:100A90000346002B01D000F0E7F800BF80BD00BF87
:100AA000EC0000200010014080B500AF114B124A4D
:100AB0001A60104B4FF4E1325A600E4B00229A60DC
:100AC0000C4B0022DA600B4B00221A61094B0C22FE
:100AD0005A61084B00229A61064B0022DA610548F0
:100AE00002F096FD0346002B01D000F0BDF800BFD8
:100AF00080BD00BF700100200044004080B58AB076
:100B000000AF07F1140300221A605A609A60DA609D
:100B10001A6100233B612D4A2C4B1B6B43F00403ED
:100B200013632A4B1B6B03F004033B613B690023F7
:100B3000FB60264A254B1B6B43F080031363234B5A
:100B40001B6B03F08003FB60FB680023BB601F4A44
:100B50001E4B1B6B43F0010313631C4B1B6B03F019
:100B60000103BB60BB6800237B60184A174B1B6BFB
:100B700043F002031363154B1B6B03F002037B600E
:100B80007B6800222021124800F04EFD4FF40053F4
:100B90007B61104BBB610023FB6107F11403194615
:100BA0000D4800F0BFFB20237B610123BB610023C4
:100BB000FB6100233B6207F114031946044800F06F
:100BC000B1FB00BF2837BD4680BD00BF00380240E2
:100BD00000000240000021100008024080B586B0ED
:100BE00000AFF860B9607A6000237B610BE07B693D
:100BF000BA68D1184FF6FF730122074802F055FD7D
:100C00007B6901337B617A697B689A42EFDB7B68A1
:100C100018461837BD4680BD7001002080B584B0ED
:100C200002AF0346FB71FA1D4FF47A730093012360
:100C3000A6210B4800F0F2FD052000F023FA4FF446
:100C40007A7300930223074AA621054800F0F4FEB8
:100C5000052000F017FA00BF0837BD4680BD00BF71
:100C6000980000202C01002080B400AF00BFBD46DA
:100C70005DF8047B7047000080B582B000AF0023B0
:100C80007B60104A0F4B5B6C43F4804353640D4B05
:100C90005B6C03F480437B607B6800233B60094A04
:100CA000084B1B6C43F080531364064B1B6C03F022
:100CB00080533B603B68072000F0D0FA00BF083744
:100CC000BD4680BD0038024080B58AB000AF786074
:100CD00007F1140300221A605A609A60DA601A6100
:100CE0007B681B68194A93422CD100233B61184A48
:100CF000174B1B6B43F002031363154B1B6B03F085
:100D000002033B613B694FF440737B611223BB617B
:100D10000123FB6103233B6204237B6207F114037D
:100D200019460C4800F0FEFA0023FB60084A084B05
:100D30001B6C43F400131364054B1B6C03F400138A
:100D4000FB60FB6800BF2837BD4680BD00540040F3
:100D5000003802400004024080B584B000AF7860E3
:100D60007B681B680E4A934215D10023FB600D4A35
:100D70000C4B5B6C43F0010353640A4B5B6C03F058
:100D80000103FB60FB68002200211B2000F071FAC8
:100D90001B2000F08AFA00BF1037BD4680BD00BF9F
:100DA000000001400038024080B58CB000AF786090
:100DB00007F11C0300221A605A609A60DA601A6117
:100DC0007B681B68364A934235D10023BB61354AA4
:100DD000344B5B6C43F010035364324B5B6C03F099
:100DE0001003BB61BB6900237B612E4A2D4B1B6B3B
:100DF00043F0010313632B4B1B6B03F001037B6177
:100E00007B694FF4C063FB6102233B6201237B6279
:100E10000323BB620723FB6207F11C031946224828
:100E200000F080FA00220021252000F022FA25207F
:100E300000F03BFA30E07B681B681C4A93422BD1E0
:100E400000233B61174A174B1B6C43F400331364B8
:100E5000144B1B6C03F400333B613B690023FB60C4
:100E6000104A104B1B6B43F0010313630D4B1B6BBC
:100E700003F00103FB60FB680C23FB6102233B6270
:100E800000237B620023BB620723FB6207F11C0384
:100E90001946054800F046FA00BF3037BD4680BD10
:100EA00000100140003802400000024000440040B1
:100EB00080B400AF00BFBD465DF8047B704780B4CE
:100EC00000AFFEE780B400AFFEE780B400AFFEE7FE
:100ED00080B400AFFEE780B400AF00BFBD465DF850
:100EE000047B704780B400AF00BFBD465DF8047B53
:100EF000704780B400AF00BFBD465DF8047B70470B
:100F000080B500AF00F09EF800BF80BD80B500AF97
:100F1000024801F014FF00BF80BD00BF3001002077
:100F200080B500AF024802F059FC00BF80BD00BF91
:100F3000EC00002080B400AF164A164BD3F888307E
:100F400043F47003C2F88830134A134B1B6843F014
:100F500001031360104B00229A600F4A0E4B1B686E
:100F600023F0847323F4803313600B4B0B4A5A60D5
:100F7000094A094B1B6823F480231360064B0022A7
:100F8000DA60044B4FF000629A6000BFBD465DF826
:100F9000047B704700ED00E0003802401030002470
:100FA00080B500AF0E4A0E4B1B6843F4007313600C
:100FB0000B4A0B4B1B6843F480631360084A084BD1
:100FC0001B6843F480731360032000F047F900208E
:100FD00000F008F8FFF750FE0023184680BD00BF60
:100FE000003C024080B582B000AF7860124B1A68B6
:100FF000124B1B7819464FF47A73B3FBF1F3B2FB33
:10100000F3F3184600F05FF90346002B01D00123EB
:101010000EE07B680F2B0AD8002279684FF0FF3072
:1010200000F027F9064A7B681360002300E00123E3
:1010300018460837BD4680BD00000020080000208B
:101040000400002080B400AF064B1B781A46064B04
:101050001B681344044A136000BFBD465DF8047B5F
:10106000704700BF08000020B001002080B400AF2E
:10107000034B1B681846BD465DF8047B704700BFF4
:10108000B001002080B584B000AF7860FFF7EEFFBC
:10109000B8607B68FB60FB68B3F1FF3F05D0094B8C
:1010A0001B781A46FB681344FB6000BFFFF7DEFFA6
:1010B0000246BB68D21AFB689A42F7D300BF1037CA
:1010C000BD4680BD0800002080B485B000AF7860C8
:1010D0007B6803F00703FB600C4BDB68BB60BA68FE
:1010E0004FF6FF031340BB60FB681A02BB68134353
:1010F00043F0BF6343F40033BB60044ABB68D36072
:1011000000BF1437BD465DF8047B704700ED00E07A
:1011100080B400AF044BDB681B0A03F007031846DA
:10112000BD465DF8047B704700ED00E080B483B0FD
:1011300000AF0346FB71094997F907305B09FA795B
:1011400002F01F02012000FA02F241F8232000BF42
:101150000C37BD465DF8047B704700BF00E100E03E
:1011600080B483B000AF03463960FB7197F9073054
:10117000002B0BDA0D49FB7903F00F03043B3A68AF
:10118000D2B21201D2B20B441A7609E0084997F99B
:1011900007303A68D2B21201D2B20B4483F800236E
:1011A00000BF0C37BD465DF8047B704700ED00E0E2
:1011B00000E100E080B489B000AFF860B9607A6007
:1011C000FB6803F00703FB61FB69C3F10703042B12
:1011D00028BF0423BB61FB690433062B02D9FB69DA
:1011E000033B00E000237B610122BB6902FA03F3A9
:1011F0005A1EBB681A407B699A4001217B6901FA3B
:1012000003F3591E7B680B40134318462437BD4631
:101210005DF8047B7047000080B582B000AF786055
:101220007B68013BB3F1807F01D301230FE00A4AC1
:101230007B68013B53600F214FF0FF30FFF790FFB9
:10124000054B00229A60044B07221A6000231846BF
:101250000837BD4680BD00BF10E000E080B582B019
:1012600000AF78607868FFF72FFF00BF0837BD46F2
:1012700080BD80B586B000AF0346B9607A60FB736D
:1012800000237B61FFF744FF78617A68B968786969
:10129000FFF790FF024697F90F3011461846FFF707
:1012A0005FFF00BF1837BD4680BD80B582B000AF7C
:1012B0000346FB7197F907301846FFF737FF00BF69
:1012C0000837BD4680BD80B582B000AF78607868D1
:1012D000FFF7A2FF034618460837BD4680BD80B41D
:1012E00083B000AF78607B6893F83530DBB2022BB7
:1012F00004D07B6880225A6501230CE07B680522BC
:1013000083F835207B681B687A681268126822F0BF
:1013100001021A60002318460C37BD465DF8047BB5
:101320007047000080B489B000AF78603960002356
:101330007B6100233B610023BB610023FB6159E11A
:101340000122FB6902FA03F37B613B681A687B693F
:1013500013403B613A697B699A4240F048813B689F
:101360005B68022B03D03B685B68122B23D1FB69BF
:10137000DA087B68083253F82230BB61FB6903F05E
:1013800007039B000F2202FA03F3DB43BA69134001
:10139000BB613B681A69FB6903F007039B0002FA13
:1013A00003F3BA691343BB61FB69DA087B6808324F
:1013B000B96943F822107B681B68BB61FB695B005D
:1013C000032202FA03F3DB43BA691340BB613B68B3
:1013D0005B6803F00302FB695B0002FA03F3BA697E
:1013E0001343BB617B68BA691A603B685B68012B79
:1013F0000BD03B685B68022B07D03B685B68112B06
:1014000003D03B685B68122B30D17B689B68BB6163
:10141000FB695B00032202FA03F3DB43BA69134062
:10142000BB613B68DA68FB695B0002FA03F3BA69E7
:101430001343BB617B68BA699A607B685B68BB6178
:101440000122FB6902FA03F3DB43BA691340BB6173
:101450003B685B681B0903F00102FB6902FA03F3B6
:10146000BA691343BB617B68BA695A607B68DB6801
:10147000BB61FB695B00032202FA03F3DB43BA6939
:101480001340BB613B689A68FB695B0002FA03F397
:10149000BA691343BB617B68BA69DA603B685B6811
:1014A00003F08053002B00F0A2800023FB60564A1B
:1014B000554B5B6C43F480435364534B5B6C03F4B8
:1014C0008043FB60FB68514AFB699B08023352F87A
:1014D0002330BB61FB6903F003039B000F2202FA78
:1014E00003F3DB43BA691340BB617B68484A93420C
:1014F00019D07B68474A934213D07B68464A93428F
:101500000DD07B68454A934207D07B68444A93429A
:1015100001D1042308E0072306E0032304E00223AB
:1015200002E0012300E00023FA6902F003029200C6
:101530009340BA691343BB613449FB699B0802338A
:10154000BA6941F82320374B1B68BB613B69DB4319
:10155000BA691340BB613B685B6803F48033002BBE
:1015600003D0BA693B691343BB612E4ABB69136060
:101570002C4B5B68BB613B69DB43BA691340BB61C1
:101580003B685B6803F40033002B03D0BA693B6906
:101590001343BB61234ABB695360224B9B68BB6109
:1015A0003B69DB43BA691340BB613B685B6803F48A
:1015B0008013002B03D0BA693B691343BB61194AFE
:1015C000BB699360174BDB68BB613B69DB43BA695E
:1015D0001340BB613B685B6803F40013002B03D02E
:1015E000BA693B691343BB610E4ABB69D360FB69AF
:1015F0000133FB61FB690F2B7FF6A2AE00BF2437DE
:10160000BD465DF8047B7047003802400038014059
:10161000000002400004024000080240000C0240AA
:1016200000100240003C014080B483B000AF7860FD
:101630000B467B8013467B707B78002B03D07A8827
:101640007B689A6103E07B881A047B689A6100BF1B
:101650000C37BD465DF8047B7047000080B584B050
:1016600000AF78600023FB600023BB607B68002B29
:1016700001D10123C8E07B6893F83D30DBB2002B39
:1016800006D17B68002283F83C207868FFF71CFBBA
:101690007B68242283F83D207B681B687A68126887
:1016A000126822F001021A6001F0F6FAB860BB6815
:1016B000574AA2FB03239B0CFB607B681B68FA68FC
:1016C0005A607B681A687B685B6852498B4202D813
:1016D000FB68013309E0FB684FF4967101FB03F3EB
:1016E0004D49A1FB03139B09013313627B68196801
:1016F0007B685B68474A934212D87B685B685B00F3
:10170000BA68B2FBF3F3C3F30B03032B06D97B6870
:101710005B685B00BA68B2FBF3F345E0042343E087
:101720007B689B68002B0FD17B685A6813465B006F
:101730001344BA68B2FBF3F3C3F30B03002B0CBFE3
:1017400001230023DBB210E07B685A6813469B003C
:1017500013449A001344BA68B2FBF3F3C3F30B03C8
:10176000002B0CBF01230023DBB2002B01D001238F
:101770001AE07B689B68002B0AD17B685A68134685
:101780005B001344BA68B2FBF3F343F400430BE08D
:101790007B685A6813469B0013449A001344BA6846
:1017A000B2FBF3F343F44043CB617B681B687A6878
:1017B000D1697A68126A0A431A607B681B687A6882
:1017C00011697A68D2680A439A607B681B687A68F4
:1017D00051697A6892690A43DA607B681B687A68A3
:1017E0001268126842F001021A607B6800221A64D3
:1017F0007B68202283F83D207B6800221A637B6887
:10180000002283F83E20002318461037BD4680BDD5
:1018100083DE1B43A0860100D34D621080B588B0E3
:1018200002AFF8607A601A460B467B8113463B8113
:1018300000237B61FFF71AFC7861FB6893F83D3069
:10184000DBB2202B40F0EE807B690093192301224C
:101850007749F86800F06CFC0346002B01D00223A6
:10186000E1E0FB6893F83C30012B01D10223DAE080
:10187000FB68012283F83C20FB681B681B6803F0AF
:101880000103012B07D0FB681B68FA681268126815
:1018900042F001021A60FB681B68FA68126812685D
:1018A00022F400621A60FB68212283F83D20FB6865
:1018B000102283F83E20FB6800221A64FB687A68D5
:1018C0005A62FB683A895A85FB685A4ADA62FB68B1
:1018D0005B8D9AB2FB681A8579897B693A6AF868E8
:1018E00000F0DCFA0346002B0FD0FB681B6C042BC6
:1018F00005D1FB68002283F83C20012393E0FB68BC
:10190000002283F83C2003238DE000233B61FB6829
:101910001B685B693B61FB681B689B693B613B69BA
:1019200066E07A69396AF86800F0C1FC0346002B6A
:101930000FD0FB681B6C042B09D1FB681B68FA688D
:101940001268126842F400721A6001236BE00323EC
:1019500069E0FB681A68FB685B6A581CF9684862B2
:101960001B781361FB685B8D9BB2013B9AB2FB68ED
:101970005A85FB681B8D013B9AB2FB681A85FB6890
:101980001B685B6903F00403042B19D1FB681B8DF2
:10199000002B15D0FB681A68FB685B6A581CF96855
:1019A00048621B781361FB685B8D9BB2013B9AB266
:1019B000FB685A85FB681B8D013B9AB2FB681A8550
:1019C0007A69396AF86800F0AFFC0346002B0FD043
:1019D000FB681B6C042B09D1FB681B68FA68126852
:1019E000126842F400721A6001231CE003231AE01B
:1019F000FB681B8D002B94D1FB681B68FA6812688A
:101A0000126842F400721A60FB68202283F83D20BD
:101A1000FB68002283F83E20FB68002283F83C200C
:101A2000002300E0022318461837BD4680BD00BFE2
:101A3000020010000000FFFF80B58CB002AFF8601C
:101A40007A601A460B467B8113463B8100237B62FA
:101A5000FFF70CFB7862FB6893F83D30DBB2202B7C
:101A600040F015827B6A0093192301228549F868AA
:101A700000F05EFB0346002B01D0022308E2FB6866
:101A800093F83C30012B01D1022301E2FB680122D3
:101A900083F83C20FB681B681B6803F00103012BE3
:101AA00007D0FB681B68FA681268126842F00102EE
:101AB0001A60FB681B68FA681268126822F40062F8
:101AC0001A60FB68222283F83D20FB68102283F80D
:101AD0003E20FB6800221A64FB687A685A62FB6841
:101AE0003A895A85FB68684ADA62FB685B8D9AB26C
:101AF000FB681A8579897B6A3A6BF86800F050FABE
:101B00000346002B0FD0FB681B6C042B05D1FB6830
:101B1000002283F83C200123BAE1FB68002283F80D
:101B20003C200323B4E1FB681B8D002B13D1002361
:101B30003B62FB681B685B693B62FB681B689B69D7
:101B40003B623B6AFB681B68FA681268126842F4E1
:101B500000721A6088E1FB681B8D012B1BD1FB68AA
:101B60001B68FA681268126822F480621A60002307
:101B7000FB61FB681B685B69FB61FB681B689B6919
:101B8000FB61FB69FB681B68FA681268126842F423
:101B900000721A6068E1FB681B8D022B1BD1FB6889
:101BA0001B68FA681268126822F480621A60FB6887
:101BB0001B68FA681268126842F400621A60002317
:101BC000BB61FB681B685B69BB61FB681B689B6949
:101BD000BB61BB6948E1FB681B68FA681268126860
:101BE00042F480621A6000237B61FB681B685B69BA
:101BF0007B61FB681B689B697B617B6934E1FB68E7
:101C00001B8D032B00F2EB80FB681B8D012B27D172
:101C10007A6A396BF86800F0C4FB0346002B07D0E2
:101C2000FB681B6C202B01D1032331E101232FE141
:101C3000FB685B6A591CFA685162FA68126812699B
:101C4000D2B21A70FB681B8D013B9AB2FB681A85F1
:101C5000FB685B8D9BB2013B9AB2FB685A8503E13E
:101C6000FB681B8D022B4AD17B6A00933B6B0022E1
:101C70000649F86800F05CFA0346002B08D00323FD
:101C800006E100BF020010000000FFFF0400010099
:101C9000FB681B68FA681268126842F400721A60E6
:101CA000FB685B6A591CFA685162FA68126812692B
:101CB000D2B21A70FB681B8D013B9AB2FB681A8581
:101CC000FB685B8D9BB2013B9AB2FB685A85FB684F
:101CD0005B6A591CFA685162FA6812681269D2B2DA
:101CE0001A70FB681B8D013B9AB2FB681A85FB6872
:101CF0005B8D9BB2013B9AB2FB685A85B4E07B6A6C
:101D000000933B6B00226449F86800F011FA034627
:101D1000002B01D00323BBE0FB681B68FA68126844
:101D2000126822F480621A60FB685B6A591CFA68C8
:101D30005162FA6812681269D2B21A70FB681B8D80
:101D4000013B9AB2FB681A85FB685B8D9BB2013B35
:101D50009AB2FB685A857B6A00933B6B00224E491E
:101D6000F86800F0E5F90346002B01D003238FE06B
:101D7000FB681B68FA681268126842F400721A6005
:101D8000FB685B6A591CFA685162FA68126812694A
:101D9000D2B21A70FB681B8D013B9AB2FB681A85A0
:101DA000FB685B8D9BB2013B9AB2FB685A85FB686E
:101DB0005B6A591CFA685162FA6812681269D2B2F9
:101DC0001A70FB681B8D013B9AB2FB681A85FB6891
:101DD0005B8D9BB2013B9AB2FB685A8544E07A6AFC
:101DE000396BF86800F0DDFA0346002B07D0FB687A
:101DF0001B6C202B01D103234AE0012348E0FB6840
:101E00005B6A591CFA685162FA6812681269D2B2A8
:101E10001A70FB681B8D013B9AB2FB681A85FB6840
:101E20005B8D9BB2013B9AB2FB685A85FB681B68CD
:101E30005B6903F00403042B16D1FB685B6A591C31
:101E4000FA685162FA6812681269D2B21A70FB68B5
:101E50001B8D013B9AB2FB681A85FB685B8D9BB2B8
:101E6000013B9AB2FB685A85FB681B8D002B7FF4FF
:101E7000C6AEFB68202283F83D20FB68002283F871
:101E80003E20FB68002283F83C20002300E0022370
:101E900018462837BD4680BD0400010080B588B0D3
:101EA00002AFF8607A603B600B467B81FB68DB6ABF
:101EB0007B617B69042B06D07B69012B03D07B6996
:101EC00013F5803F08D1FB681B68FA681268126836
:101ED00042F480721A600BE0FB681B6B122B07D177
:101EE000FB681B68FA681268126842F480721A6014
:101EF0003B6800937B6800224FF00111F86800F006
:101F000017F90346002B01D0032340E0FB681B694F
:101F1000B3F5804F07D1FB681B687A89D2B202F013
:101F2000FE021A6121E0FB681B687A89D211D2B2E5
:101F300002F00602D2B262F00F02D2B21A613B681E
:101F40007A681549F86800F044F90346002B07D079
:101F5000FB681B6C042B01D1012318E0032316E05E
:101F6000FB681B687A89D2B21A613B687A680B49B0
:101F7000F86800F02EF90346002B07D0FB681B6CB5
:101F8000042B01D1012302E0032300E000231846C3
:101F90001837BD4680BD00BF0800010002000100E7
:101FA00080B588B002AFF8607A603B600B467B81F9
:101FB000FB68DB6A7B61FB681B68FA681268126861
:101FC00042F480621A607B69042B06D07B69012B86
:101FD00003D07B6913F5803F08D1FB681B68FA6862
:101FE0001268126842F480721A600BE0FB681B6B87
:101FF000112B07D1FB681B68FA681268126842F45B
:1020000080721A603B6800937B6800224FF00111D8
:10201000F86800F08DF80346002B01D003237FE021
:10202000FB681B69B3F5804F08D1FB681B687A8990
:10203000D2B242F00102D2B21A615FE0FB681B68C3
:102040007A89D211D2B202F00602D2B262F00F0245
:10205000D2B21A613B687A683349F86800F0B9F87F
:102060000346002B07D0FB681B6C042B01D1012316
:1020700056E0032354E0FB681B687A89D2B21A61E8
:102080003B687A682949F86800F0A3F80346002BFA
:1020900007D0FB681B6C042B01D1012340E0032314
:1020A0003EE000233B61FB681B685B693B61FB68AA
:1020B0001B689B693B613B69FB681B68FA68126897
:1020C000126842F480721A603B6800937B680022B9
:1020D0004FF00111F86800F02BF80346002B01D0F7
:1020E00003231DE0FB681B687A89D211D2B202F08B
:1020F0000602D2B262F00E02D2B21A613B687A686E
:102100000A49F86800F065F80346002B07D0FB6821
:102110001B6C042B01D1012302E0032300E0002308
:1021200018461837BD4680BD0800010002000100B6
:1021300080B584B000AFF860B9603B601346FB71B6
:102140001FE03B68B3F1FF3F1BD03B68002B07D07B
:10215000FEF78CFF0246BB69D21A3B689A4210D93F
:10216000FB6800221A63FB68202283F83D20FB688D
:10217000002283F83E20FB68002283F83C200323E2
:1021800023E0BB681B0CDBB2012B0DD1FB681B6885
:102190005B69DA43BB6813409BB2002B0CBF012381
:1021A0000023DBB21A460CE0FB681B689B69DA432C
:1021B000BB6813409BB2002B0CBF01230023DBB292
:1021C0001A46FB799A42BCD0002318461037BD4608
:1021D00080BD80B584B000AFF860B9607A603B60C4
:1021E00040E0FB681B685B6903F48063B3F5806FB4
:1021F0001CD1FB681B68FA681268126842F400720E
:102200001A60FB681B686FF480625A61FB680422E5
:102210001A64FB6800221A63FB68202283F83D20C1
:10222000FB68002283F83C2001233CE07B68B3F18B
:10223000FF3F17D07B68002B07D0FEF717FF024641
:102240003B68D21A7B689A420CD9FB6800221A6359
:10225000FB68202283F83D20FB68002283F83C20A5
:10226000032320E0BB681B0CDBB2012B0CD1FB6805
:102270001B685B69DA43BB6813409BB2002B14BF39
:1022800001230023DBB20BE0FB681B689B69DA4388
:10229000BB6813409BB2002B14BF01230023DBB2A9
:1022A000002B9ED1002318461037BD4680BD80B557
:1022B00084B000AFF860B9607A6029E0F86800F097
:1022C000BAF80346002B01D0012329E0BB68B3F123
:1022D000FF3F1DD0BB68002B07D0FEF7C7FE0246AC
:1022E0007B68D21ABB689A4212D9FB681B6C43F018
:1022F0002002FB681A64FB6800221A63FB68202234
:1023000083F83D20FB68002283F83C20032307E08C
:10231000FB681B685B6903F08003802BCED1002330
:1023200018461037BD4680BD80B584B000AFF86058
:10233000B9607A6029E0F86800F07DF80346002B68
:1023400001D0012329E0BB68B3F1FF3F1DD0BB687A
:10235000002B07D0FEF78AFE02467B68D21ABB68C4
:102360009A4212D9FB681B6C43F02002FB681A6486
:10237000FB6800221A63FB68202283F83D20FB687B
:10238000002283F83C20032307E0FB681B685B699D
:1023900003F00403042BCED1002318461037BD46AA
:1023A00080BD80B584B000AFF860B9607A6036E077
:1023B000FB681B685B6903F01003102B14D1FB68EA
:1023C0001B686FF010025A61FB6800221A64FB68F8
:1023D00000221A63FB68202283F83D20FB6800225C
:1023E00083F83C20012322E0BB68002B07D0FEF7D6
:1023F0003DFE02467B68D21ABB689A420FD9FB6841
:102400001B6C43F02002FB681A64FB68202283F8EF
:102410003D20FB68002283F83C20032307E0FB6893
:102420001B685B6903F04003402BC1D100231846B1
:102430001037BD4680BD80B483B000AF78607B6844
:102440001B685B6903F48063B3F5806F14D17B680C
:102450001B686FF480625A617B6804221A647B688F
:1024600000221A637B68202283F83D207B680022CB
:1024700083F83C20012300E0002318460C37BD46BA
:102480005DF8047B7047000080B586B000AF7860CF
:102490007B68002B01D101232DE27B681B6803F0D0
:1024A0000103002B75D0A34B9B6803F00C03042B96
:1024B0000CD0A04B9B6803F00C03082B12D19D4B52
:1024C0005B6803F48003B3F5800F0BD1994B1B6855
:1024D00003F40033002B5BD07B685B68002B57D183
:1024E000012308E27B685B68B3F5803F06D1914A1F
:1024F000904B1B6843F4803313601DE07B685B687E
:10250000B3F5A02F0CD18B4A8A4B1B6843F4802370
:102510001360884A874B1B6843F4803313600BE0D9
:10252000844A844B1B6823F480331360814A814BB7
:102530001B6823F4802313607B685B68002B13D037
:10254000FEF794FD386108E0FEF790FD02463B6916
:10255000D31A642B01D90323CDE1764B1B6803F416
:102560000033002BF0D014E0FEF780FD386108E066
:10257000FEF77CFD02463B69D31A642B01D9032385
:10258000B9E16C4B1B6803F40033002BF0D100E081
:1025900000BF7B681B6803F00203002B63D0654B10
:1025A0009B6803F00C03002B0BD0624B9B6803F07D
:1025B0000C03082B1CD15F4B5B6803F48003002BDA
:1025C00016D15C4B1B6803F00203002B05D07B681F
:1025D000DB68012B01D001238DE15649554B1B6867
:1025E00023F0F8027B681B69DB0013430B603AE0C1
:1025F0007B68DB68002B20D04F4B01221A60FEF76E
:1026000035FD386108E0FEF731FD02463B69D31A1B
:10261000022B01D903236EE1464B1B6803F0020332
:10262000002BF0D04349434B1B6823F0F8027B6832
:102630001B69DB0013430B6015E03F4B00221A605F
:10264000FEF714FD386108E0FEF710FD02463B6915
:10265000D31A022B01D903234DE1364B1B6803F03B
:102660000203002BF0D17B681B6803F00803002BEA
:1026700030D07B685B69002B16D0304B01221A608A
:10268000FEF7F4FC386108E0FEF7F0FC02463B6917
:10269000D31A022B01D903232DE1264B5B6F03F0E4
:1026A0000203002BF0D015E0244B00221A60FEF745
:1026B000DDFC386108E0FEF7D9FC02463B69D31A1D
:1026C000022B01D9032316E11A4B5B6F03F00203BF
:1026D000002BF0D17B681B6803F00403002B00F093
:1026E000A0800023FB75134B1B6C03F08053002B61
:1026F0000FD10023FB600F4A0E4B1B6C43F080533D
:1027000013640C4B1B6C03F08053FB60FB680123CC
:10271000FB750B4B1B6803F48073002B21D1084A17
:10272000074B1B6843F480731360FEF79FFC38610E
:1027300011E000BF0038024000004742800E4742CF
:1027400000700040FEF792FC02463B69D31A022B50
:1027500001D90323CFE06A4B1B6803F48073002B7D
:10276000F0D07B689B68012B06D1664A654B1B6FD6
:1027700043F0010313671CE07B689B68052B0CD1B9
:10278000604A604B1B6F43F0040313675D4A5D4B67
:102790001B6F43F0010313670BE05A4A594B1B6F41
:1027A00023F001031367574A564B1B6F23F00403B2
:1027B00013677B689B68002B15D0FEF757FC3861C8
:1027C0000AE0FEF753FC02463B69D31A41F2883215
:1027D000934201D903238EE04A4B1B6F03F002039F
:1027E000002BEED014E0FEF741FC38610AE0FEF762
:1027F0003DFC02463B69D31A41F28832934201D92B
:10280000032378E03F4B1B6F03F00203002BEED154
:10281000FB7D012B05D13B4A3A4B1B6C23F08053C7
:1028200013647B689B69002B64D0364B9B6803F074
:102830000C03082B5CD07B689B69022B41D1324B87
:1028400000221A60FEF712FC386108E0FEF70EFC69
:1028500002463B69D31A022B01D903234BE0294BD3
:102860001B6803F00073002BF0D126497B68DA69FE
:102870007B681B6A1A437B685B6A9B011A437B680F
:102880009B6A5B08013B1B041A437B68DB6A1B06DF
:1028900013434B601C4B01221A60FEF7E7FB3861C3
:1028A00008E0FEF7E3FB02463B69D31A022B01D98D
:1028B000032320E0134B1B6803F00073002BF0D0C0
:1028C00018E0114B00221A60FEF7D0FB386108E0D7
:1028D000FEF7CCFB02463B69D31A022B01D9032336
:1028E00009E0084B1B6803F00073002BF0D101E0F6
:1028F000012300E0002318461837BD4680BD00BF05
:1029000000700040003802406000474280B584B04B
:1029100000AF786039607B68002B01D10123CAE0E9
:10292000674B1B6803F00F023B689A420CD2644B62
:102930003A68D2B21A70624B1B6803F00F023B6810
:102940009A4201D00123B6E07B681B6803F00203C2
:10295000002B20D07B681B6803F00403002B05D0FC
:10296000584A584B9B6843F4E05393607B681B685C
:1029700003F00803002B05D0524A524B9B6843F4E6
:10298000604393604F494F4B9B6823F0F0027B6894
:102990009B6813438B607B681B6803F00103002B6B
:1029A00044D07B685B68012B07D1464B1B6803F45E
:1029B0000033002B19D101237DE07B685B68022B7B
:1029C00003D07B685B68032B07D13E4B1B6803F089
:1029D0000073002B09D101236DE03A4B1B6803F013
:1029E0000203002B01D1012365E03649354B9B687A
:1029F00023F003027B685B6813438B60FEF736FBB2
:102A0000F8600AE0FEF732FB0246FB68D31A41F297
:102A10008832934201D903234DE02A4B9B6803F08F
:102A20000C027B685B689B009A42EBD1244B1B68CD
:102A300003F00F023B689A420CD9214B3A68D2B29C
:102A40001A701F4B1B6803F00F023B689A4201D0BB
:102A5000012330E07B681B6803F00403002B08D0DF
:102A60001849184B9B6823F4E0527B68DB681343DA
:102A70008B607B681B6803F00803002B09D01149A9
:102A8000104B9B6823F460427B681B69DB00134397
:102A90008B6000F01DF801460A4B9B681B0903F090
:102AA0000F03094AD35C21FA03F3084A136000209C
:102AB000FEF798FA002318461037BD4680BD00BFC8
:102AC000003C024000380240045100080000002091
:102AD0002DE9F04F8FB000AF0023FB6200237B6332
:102AE0000023BB6200233B63624B9B6803F00C0333
:102AF000042B07D0082B08D0002B40F0B2805E4B8F
:102B00003B63B1E05D4B3B63AEE05A4B5B6803F067
:102B10003F03FB62574B5B6803F48003002B4ED0EE
:102B2000544B5B689B094FF0000440F2FF114FF0DB
:102B3000000201EA030102EA04020B4614466001A6
:102B40007862786A40EAD36078625B013B62D7E9D9
:102B500008345B1A64EB02044FEA841949EA93696A
:102B60004FEA8318B8EB030869EB04094FEAC9037D
:102B7000FB61FB6943EA5873FB614FEAC803BB6121
:102B8000D7E9068918EB010849EB02094FEA492306
:102B90007B617B6943EAD8537B614FEA48233B6101
:102BA000D7E9048940464946FB6A4FF000041A46BB
:102BB0002346FDF765FB03460C467B6343E02D4B44
:102BC0005B689B094FF0000440F2FF114FF00002D8
:102BD00001EA030102EA04020B4614466001F860B0
:102BE000F86840EAD360F8605B01BB60D7E9023463
:102BF0005B1A64EB0204A60146EA93669D01ED1A96
:102C000066EB0406F3007B607B6843EA55737B60E8
:102C1000EB003B6097E860006D1846EB02064FEA58
:102C2000862B4BEA955B4FEA852A55465E46284639
:102C30003146FB6A4FF000041A462346FDF720FB9D
:102C400003460C467B630B4B5B681B0C03F00303D2
:102C500001335B00BB627A6BBB6AB2FBF3F33B638D
:102C600002E0054B3B6300BF3B6B18463C37BD465B
:102C7000BDE8F08F003802400024F40000127A0012
:102C800080B400AF034B1B681846BD465DF8047B5B
:102C9000704700BF0000002080B500AFFFF7F0FFD5
:102CA0000146054B9B689B0A03F00703034AD35C6C
:102CB00021FA03F3184680BD003802401451000881
:102CC00080B500AFFFF7DCFF0146054B9B685B0B4F
:102CD00003F00703034AD35C21FA03F3184680BDCF
:102CE000003802401451000880B582B000AF78600F
:102CF0007B68002B01D101231DE07B6893F83930FC
:102D0000DBB2002B06D17B68002283F8382078687C
:102D1000FEF722F87B68022283F839207B681A6864
:102D20007B6804331946104600F0A4F97B68012241
:102D300083F83920002318460837BD4680BD80B58A
:102D400082B000AF78607B681B681B6903F00203E8
:102D5000022B22D17B681B68DB6803F00203022B85
:102D60001BD17B681B686FF002021A617B6801222D
:102D70001A767B681B689B6903F00303002B03D062
:102D8000786800F059F905E0786800F04BF9786848
:102D900000F05CF97B6800221A767B681B681B696F
:102DA00003F00403042B22D17B681B68DB6803F06B
:102DB0000403042B1BD17B681B686FF004021A61AB
:102DC0007B6802221A767B681B689B6903F4407358
:102DD000002B03D0786800F02FF905E0786800F048
:102DE00021F9786800F032F97B6800221A767B6856
:102DF0001B681B6903F00803082B22D17B681B6842
:102E0000DB6803F00803082B1BD17B681B686FF09D
:102E100008021A617B6804221A767B681B68DB69EA
:102E200003F00303002B03D0786800F005F905E0F8
:102E3000786800F0F7F8786800F008F97B680022FD
:102E40001A767B681B681B6903F01003102B22D1D4
:102E50007B681B68DB6803F01003102B1BD17B68B9
:102E60001B686FF010021A617B6808221A767B6873
:102E70001B68DB6903F44073002B03D0786800F013
:102E8000DBF805E0786800F0CDF8786800F0DEF84F
:102E90007B6800221A767B681B681B6903F00103BC
:102EA000012B0ED17B681B68DB6803F00103012B4B
:102EB00007D17B681B686FF001021A61786800F027
:102EC000A7F87B681B681B6903F08003802B0ED179
:102ED0007B681B68DB6803F08003802B07D17B686D
:102EE0001B686FF080021A61786800F087FB7B68CE
:102EF0001B681B6903F04003402B0ED17B681B68E5
:102F0000DB6803F04003402B07D17B681B686FF040
:102F100040021A61786800F0A3F87B681B681B699F
:102F200003F02003202B0ED17B681B68DB6803F0C5
:102F30002003202B07D17B681B686FF020021A61E9
:102F4000786800F051FB00BF0837BD4680BD000027
:102F500080B584B000AFF860B9607A60FB6893F820
:102F60003830012B01D102234EE0FB68012283F8A7
:102F70003820FB68022283F839207B680C2B39D873
:102F800001A252F823F000BFBD2F0008F52F000862
:102F9000F52F0008F52F0008CB2F0008F52F0008AB
:102FA000F52F0008F52F0008D92F0008F52F00088D
:102FB000F52F0008F52F0008E72F0008FB681B68B5
:102FC000B968184600F048F915E0FB681B68B96855
:102FD000184600F0D3F80EE0FB681B68B968184685
:102FE00000F0A2F907E0FB681B68B968184600F01A
:102FF00007FA00E000BFFB68012283F83920FB6874
:10300000002283F83820002318461037BD4680BDC3
:1030100080B483B000AF786000BF0C37BD465DF868
:10302000047B704780B483B000AF786000BF0C377A
:10303000BD465DF8047B704780B483B000AF786014
:1030400000BF0C37BD465DF8047B704780B483B089
:1030500000AF786000BF0C37BD465DF8047B704759
:1030600080B483B000AF786000BF0C37BD465DF818
:10307000047B704780B485B000AF7860396000236E
:10308000FB607B681B68FB607B68354A93420FD00E
:103090007B68B3F1804F0BD07B68324A934207D0F4
:1030A0007B68314A934203D07B68304A934201D116
:1030B000012300E00023002B08D0FB6823F07003FD
:1030C000FB603B685B68FA681343FB607B68244ADB
:1030D00093421BD07B68B3F1804F17D07B68214AA5
:1030E000934213D07B68204A93420FD07B681F4ADB
:1030F00093420BD07B681E4A934207D07B681D4ADF
:10310000934203D07B681C4A934201D1012300E023
:103110000023002B08D0FB6823F44073FB603B685E
:10312000DB68FA681343FB607B68FA681A603B68E7
:103130009A687B68DA623B681A687B689A627B6887
:10314000074A934203D13B681A697B681A637B681C
:1031500001225A6100BF1437BD465DF8047B7047F9
:10316000000001400004004000080040000C004046
:1031700000400140004401400048014080B487B055
:1031800000AF786039600023FB6000237B6100237F
:103190003B617B681B6A23F010027B681A627B68C4
:1031A0001B6A7B617B685B683B617B689B69FB603A
:1031B000FB6823F4E043FB60FB6823F44073FB608F
:1031C0003B681B681B02FA681343FB607B6923F0B2
:1031D00020037B613B689B681B017A6913437B6119
:1031E0007B681C4A934221D17B6923F080037B6179
:1031F0003B68DB681B017A6913437B617B6923F0C1
:1032000040037B613B6923F480633B613B6923F4AA
:1032100000633B613B685B699B003A6913433B6118
:103220003B689B699B003A6913433B617B683A6941
:103230005A607B68FA689A613B685A687B689A634F
:103240007B687A691A6200BF1C37BD465DF8047B53
:10325000704700BF0000014080B487B000AF7860C5
:1032600039600023FB6000237B6100233B617B68A6
:103270001B6A23F001027B681A627B681B6A7B6110
:103280007B685B683B617B689B69FB60FB6823F044
:103290007003FB60FB6823F00303FB603B681B6863
:1032A000FA681343FB607B6923F002037B613B6890
:1032B0009B687A6913437B617B681A4A93421ED1EB
:1032C0007B6923F008037B613B68DB687A69134301
:1032D0007B617B6923F004037B613B6923F480738A
:1032E0003B613B6923F400733B613B685B693A696E
:1032F00013433B613B689B693A6913433B617B68BD
:103300003A695A607B68FA689A613B685A687B68D8
:103310005A637B687A691A6200BF1C37BD465DF844
:10332000047B70470000014080B487B000AF786034
:1033300039600023FB6000237B6100233B617B68D5
:103340001B6A23F480727B681A627B681B6A7B614C
:103350007B685B683B617B68DB69FB60FB6823F033
:103360007003FB60FB6823F00303FB603B681B6892
:10337000FA681343FB607B6923F400737B613B684D
:103380009B681B027A6913437B617B681B4A9342EB
:1033900021D17B6923F400637B613B68DB681B02FE
:1033A0007A6913437B617B6923F480637B613B69AA
:1033B00023F480533B613B6923F400533B613B683A
:1033C0005B691B013A6913433B613B689B691B01C5
:1033D0003A6913433B617B683A695A607B68FA68D3
:1033E000DA613B685A687B68DA637B687A691A62DB
:1033F00000BF1C37BD465DF8047B704700000140EC
:1034000080B487B000AF7860396000233B6100234F
:10341000FB6000237B617B681B6A23F480527B681E
:103420001A627B681B6AFB607B685B687B617B68F8
:10343000DB693B613B6923F4E0433B613B6923F477
:1034400040733B613B681B681B023A6913433B6155
:10345000FB6823F40053FB603B689B681B03FA681E
:103460001343FB607B68104A934209D17B6923F4C4
:1034700080437B613B685B699B017A6913437B6195
:103480007B687A695A607B683A69DA613B685A6896
:103490007B681A647B68FA681A6200BF1C37BD46F5
:1034A0005DF8047B704700BF0000014080B483B02A
:1034B00000AF786039607B6893F83830012B01D118
:1034C000022332E07B68012283F838207B680222E5
:1034D00083F839207B681B687A681268526822F08A
:1034E00070025A607B681B687A68126851683A6893
:1034F00012680A435A607B681B687A68126892688F
:1035000022F080029A607B681B687A681268916872
:103510003A6852680A439A607B68012283F839202E
:103520007B68002283F83820002318460C37BD46FC
:103530005DF8047B704780B485B000AF7860396077
:103540000023FB607B6893F83830012B01D1022304
:1035500044E07B68012283F83820FB6823F0FF02F7
:103560003B68DB681343FB60FB6823F440723B68F5
:103570009B681343FB60FB6823F480623B685B68D5
:103580001343FB60FB6823F400623B681B68134332
:10359000FB60FB6823F480523B681B691343FB60AC
:1035A000FB6823F400523B685B691343FB60FB68D4
:1035B00023F480423B689B691343FB60FB6823F460
:1035C00000423B689B691343FB607B681B68FA6899
:1035D0005A647B68002283F8382000231846143789
:1035E000BD465DF8047B704780B483B000AF78605F
:1035F00000BF0C37BD465DF8047B704780B483B0D4
:1036000000AF786000BF0C37BD465DF8047B7047A3
:1036100080B582B000AF78607B68002B01D10123B8
:103620003FE07B6893F83930DBB2002B06D17B6832
:10363000002283F838207868FDF7B6FB7B682422E7
:1036400083F839207B681B687A681268D26822F494
:103650000052DA60786800F03DFB7B681B687A688E
:103660001268126922F490421A617B681B687A68BA
:103670001268526922F02A025A617B681B687A68D4
:103680001268D26842F40052DA607B680022DA6382
:103690007B68202283F839207B68202283F83A2037
:1036A000002318460837BD4680BD80B588B002AFFC
:1036B000F860B9603B601346FB8000237B61FB68C8
:1036C00093F83930DBB2202B40F08280BB68002BAE
:1036D00002D0FB88002B01D101237AE0FB6893F82C
:1036E0003830012B01D1022373E0FB68012283F8FB
:1036F0003820FB680022DA63FB68212283F8392036
:10370000FDF7B4FC7861FB68FA889A84FB68FA8854
:10371000DA8441E0FB68DB8C9BB2013B9AB2FB6828
:10372000DA84FB689B68B3F5805F21D13B68009326
:103730007B6900228021F86800F06AF90346002BBB
:1037400001D0032345E0BB683B61FB681B683A6915
:103750001288C2F308025A60FB681B69002B03D170
:10376000BB680233BB6017E0BB680133BB6013E08A
:103770003B6800937B6900228021F86800F048F9DB
:103780000346002B01D0032323E0FB681A68BB68C3
:10379000591CB9601B785360FB68DB8C9BB2002B13
:1037A000B8D13B6800937B6900224021F86800F0A3
:1037B0002FF90346002B01D003230AE0FB682022E7
:1037C00083F83920FB68002283F83820002300E0CA
:1037D000022318461837BD4680BD000080B588B06A
:1037E00000AF78607B681B681B68FB617B681B68A7
:1037F000DB68BB617B681B685B697B6100233B61A5
:103800000023FB60FB6903F00F033B613B69002B66
:103810000DD1FB6903F02003002B08D0BB6903F036
:103820002003002B03D0786800F0DBF9CCE03B6983
:10383000002B00F0AB807B6903F00103002B05D166
:10384000BB6903F49073002B00F0A080FB6903F0C8
:103850000103002B0AD0BB6903F48073002B05D051
:103860007B68DB6B43F001027B68DA63FB6903F082
:103870000403002B0AD07B6903F00103002B05D061
:103880007B68DB6B43F002027B68DA63FB6903F061
:103890000203002B0AD07B6903F00103002B05D043
:1038A0007B68DB6B43F004027B68DA63FB6903F03F
:1038B0000803002B0AD07B6903F00103002B05D01D
:1038C0007B68DB6B43F008027B68DA637B68DB6B49
:1038D000002B78D0FB6903F02003002B07D0BB69D5
:1038E00003F02003002B02D0786800F07AF97B689F
:1038F0001B685B6903F04003002B14BF0123002306
:10390000DBB2FB607B68DB6B03F00803002B02D1AA
:10391000FB68002B31D0786800F0C4F87B681B6826
:103920005B6903F04003002B23D07B681B687A6837
:103930001268526922F040025A617B685B6B002B6F
:1039400013D07B685B6B224A1A657B685B6B1846F9
:10395000FDF7C5FC0346002B16D07B685B6B1B6D27
:103960007A68526B104698470EE0786800F046F887
:103970000AE0786800F042F806E0786800F03EF867
:103980007B680022DA631EE000BF1CE0FB6903F0E5
:103990008003002B08D0BB6903F08003002B03D009
:1039A000786800F0B1F80FE0FB6903F04003002BEA
:1039B0000AD0BB6903F04003002B05D0786800F003
:1039C000F8F800BF00E000BF2037BD4680BD00BF53
:1039D000E13A000880B483B000AF786000BF0C37D4
:1039E000BD465DF8047B704780B483B000AF78605B
:1039F00000BF0C37BD465DF8047B704780B483B0D0
:103A000000AF786000BF0C37BD465DF8047B70479F
:103A100080B584B000AFF860B9603B601346FB71BD
:103A20002CE0BB69B3F1FF3F28D0BB69002B07D066
:103A3000FDF71CFB02463B68D21ABB699A421DD9AE
:103A4000FB681B68FA681268D26822F4D072DA60E8
:103A5000FB681B68FA681268526922F001025A6119
:103A6000FB68202283F83920FB68202283F83A2063
:103A7000FB68002283F8382003230FE0FB681B68F3
:103A80001A68BB681A40BB689A420CBF0123002326
:103A9000DBB21A46FB799A42C3D00023184610378E
:103AA000BD4680BD80B483B000AF78607B681B6882
:103AB0007A681268D26822F49072DA607B681B68B8
:103AC0007A681268526922F001025A617B682022EA
:103AD00083F83A2000BF0C37BD465DF8047B704781
:103AE00080B584B000AF78607B689B6BFB60FB683F
:103AF0000022DA85FB680022DA84F868FFF77EFF8F
:103B000000BF1037BD4680BD80B485B000AF78607F
:103B10007B6893F83930DBB2212B43D17B689B68FB
:103B2000B3F5805F19D17B681B6AFB607B681B68FB
:103B3000FA681288C2F308025A607B681B69002B7E
:103B400005D17B681B6A9A1C7B681A620EE07B6851
:103B50001B6A5A1C7B681A6208E07B681A687B68DB
:103B60001B6A581C796808621B7853607B68DB8C81
:103B70009BB2013B9BB27A681946D184002B0FD1CE
:103B80007B681B687A681268D26822F08002DA606B
:103B90007B681B687A681268D26842F04002DA607B
:103BA000002300E0022318461437BD465DF8047B6D
:103BB000704780B582B000AF78607B681B687A6818
:103BC0001268D26822F04002DA607B68202283F813
:103BD00039207868FFF7FEFE002318460837BD46F7
:103BE00080BD80B584B000AF78607B6893F83A30D0
:103BF000DBB2222B69D17B689B68B3F5805F23D150
:103C00007B689B6AFB607B681B69002B0ED17B681D
:103C10001B685B689BB2C3F308039AB2FB681A8007
:103C20007B689B6A9A1C7B689A6229E07B681B68A8
:103C30005B689BB2DBB29AB2FB681A807B689B6AB6
:103C40005A1C7B689A621BE07B681B69002B0AD1B7
:103C50007B689B6A591C7A6891627A68126852681C
:103C6000D2B21A700CE07B689B6A591C7A68916228
:103C70007A6812685268D2B202F07F02D2B21A7029
:103C80007B68DB8D9BB2013B9BB27A681946D1857C
:103C9000002B18D17B681B687A681268D26822F4FE
:103CA0009072DA607B681B687A681268526922F049
:103CB00001025A617B68202283F83A207868FFF776
:103CC00093FE002302E0002300E002231846103791
:103CD000BD4680BDF0B585B000AF78600023FB60C5
:103CE0007B681B681B69FB60FB6823F44053FB6027
:103CF0007B68DB68FA681343FB607B681B68FA68C3
:103D00001A617B681B68DB68FB60FB6823F4164361
:103D100023F00C03FB607B689A687B681B691A437D
:103D20007B685B691A437B68DB691343FA6813435A
:103D3000FB607B681B68FA68DA607B681B685B69FC
:103D4000FB60FB6823F44073FB607B689B69FA6847
:103D50001343FB607B681B68FA685A617B68DB6908
:103D6000B3F5004F40F0E4807B681B68AB4A934298
:103D700004D07B681B68AA4A93426CD17B681C689C
:103D8000FEF79EFF024613469B0013449A001A4416
:103D90007B685B685B00B2FBF3F3A24AA2FB0323E0
:103DA0005B091D01FEF78CFF024613469B0013447E
:103DB0009A001A447B685B685B00B2FBF3F6FEF77F
:103DC0007FFF024613469B0013449A001A447B6807
:103DD0005B685B00B2FBF3F3924AA2FB03235B092F
:103DE000642202FB03F3F31ADB0032338D4AA2FB99
:103DF00003235B095B0003F4F8731D44FEF760FFC7
:103E0000024613469B0013449A001A447B685B6881
:103E10005B00B2FBF3F6FEF753FF024613469B002E
:103E200013449A001A447B685B685B00B2FBF3F3AF
:103E30007C4AA2FB03235B09642202FB03F3F31A0F
:103E4000DB003233774AA2FB03235B0903F007034D
:103E50002B44A36054E17B681C68FEF71DFF0246FB
:103E600013469B0013449A001A447B685B685B000E
:103E7000B2FBF3F36B4AA2FB03235B091D01FEF7C0
:103E80000BFF024613469B0013449A001A447B68BA
:103E90005B685B00B2FBF3F6FEF7FEFE02461346DC
:103EA0009B0013449A001A447B685B685B00B2FB7A
:103EB000F3F35C4AA2FB03235B09642202FB03F3D6
:103EC000F31ADB003233574AA2FB03235B095B0082
:103ED00003F4F8731D44FEF7DFFE024613469B0011
:103EE00013449A001A447B685B685B00B2FBF3F6EC
:103EF000FEF7D2FE024613469B0013449A001A4472
:103F00007B685B685B00B2FBF3F3464AA2FB0323CA
:103F10005B09642202FB03F3F31ADB003233414AEC
:103F2000A2FB03235B0903F007032B44A360E7E034
:103F30007B681B68394A934204D07B681B68384A07
:103F4000934271D17B681C68FEF7BAFE02461346A5
:103F50009B0013449A001A447B685B689B00B2FB89
:103F6000F3F3304AA2FB03235B091D01FEF7A8FE11
:103F7000024613469B0013449A001A447B685B6810
:103F80009B00B2FBF3F6FEF79BFE024613469B0036
:103F900013449A001A447B685B689B00B2FBF3F3FE
:103FA000204AA2FB03235B09642202FB03F3F31AFA
:103FB0001B0132331B4AA2FB03235B0903F0F0030E
:103FC0001D44FEF77DFE024613469B0013449A00F3
:103FD0001A447B685B689B00B2FBF3F6FEF770FE49
:103FE000024613469B0013449A001A447B685B68A0
:103FF0009B00B2FBF3F30B4AA2FB03235B09642291
:1040000002FB03F3F31A1B013233064AA2FB03231C
:104010005B0903F00F032B44A36071E00010014023
:10402000001401401F85EB517B681C68FEF734FECD
:10403000024613469B0013449A001A447B685B684F
:104040009B00B2FBF3F3304AA2FB03235B091D0183
:10405000FEF722FE024613469B0013449A001A44C0
:104060007B685B689B00B2FBF3F6FEF715FE024629
:1040700013469B0013449A001A447B685B689B00BC
:10408000B2FBF3F3204AA2FB03235B09642202FB89
:1040900003F3F31A1B0132331B4AA2FB03235B0910
:1040A00003F0F0031D44FEF7F7FD024613469B00A4
:1040B00013449A001A447B685B689B00B2FBF3F6DA
:1040C000FEF7EAFD024613469B0013449A001A4489
:1040D0007B685B689B00B2FBF3F30B4AA2FB0323F4
:1040E0005B09642202FB03F3F31A1B013233064A15
:1040F000A2FB03235B0903F00F032B44A360FFE73C
:1041000000BF1437BD46F0BD1F85EB51014B186849
:10411000704700BF0C00002070B50D4E0D4CA41B65
:10412000A4100025A54209D10B4E0C4C00F0C6FF8F
:10413000A41BA4100025A54205D170BD56F825305A
:1041400098470135EEE756F8253098470135F2E7F4
:10415000BC510008BC510008BC510008C051000807
:1041600002440346934200D1704703F8011BF9E76C
:104170000FB40A4B13B51C6824B1A36913B92046C8
:1041800000F038FA05AB049AA1680193204600F0CC
:10419000F5FB02B0BDE8104004B070470C000020F1
:1041A00038B5084B1C68054624B1A36913B92046ED
:1041B00000F020FAA26829462046BDE8384000F009
:1041C00089BE00BF0C00002070B50E46054618B130
:1041D00083690BB900F00EFAAB69AC6813B92846D5
:1041E00000F008FA234B9C4217D16C68A3891B0787
:1041F0001DD52369DBB1013EA36816F8011F013B01
:10420000A360E9B9002B2EDA22460A21284600F0E5
:104210003FF8013011D00A2070BD174B9C4201D1EC
:10422000AC68E3E7154B9C4208BFEC68DEE721462B
:10423000284600F07FF80028DDD04FF0FF3070BD39
:10424000002B04DAA269934206DB0A2904D0236812
:104250005A1C22601970CFE72246284600F018F851
:104260000130C9D1E9E723680A205A1C226018707E
:1042700070BD00BF40510008605100082051000887
:10428000024B01461868FFF79FBF00BF0C000020DB
:10429000F8B50E461446054618B183690BB900F00F
:1042A000A9F9214B9C422AD16C68A369A360A38918
:1042B0001A072ED5236963B323692068C01A63697E
:1042C000F6B29842374604DB2146284600F028F92A
:1042D00028BBA368013BA36023685A1C22601E70A0
:1042E00063690130984204D0A389DB0719D50A2EEF
:1042F00017D12146284600F013F990B10FE00B4B7F
:104300009C4201D1AC68D0E7094B9C4208BFEC68E5
:10431000CBE72146284600F00DF80028CCD04FF01E
:10432000FF373846F8BD00BF405100086051000813
:1043300020510008324B70B51D6806460C4625B169
:10434000AB6913B9284600F055F92E4B9C420FD1AA
:104350006C68B4F90C309AB215072CD4D00611D47D
:104360000922326043F04003A3814FF0FF3070BD5B
:10437000254B9C4201D1AC68EBE7244B9C4208BF23
:10438000EC68E6E7510712D5616B41B104F14403D3
:10439000994202D0304600F01BFA00236363A389E0
:1043A00023F02403A3810023636023692360A3898E
:1043B00043F00803A38123694BB9A38903F4207355
:1043C000B3F5007F03D02146304600F0C1F9A28941
:1043D00012F001030CD00023A36063695B42A36168
:1043E000236953B9B4F90C3013F08000BAD170BD11
:1043F000920758BF6369A360F2E70020F7E700BFA8
:104400000C000020405100086051000820510008B5
:104410008A892DE9F041054610070C465AD44B68AD
:10442000002B05DC0B6C002B02DC0020BDE8F081CA
:10443000E66A002EF9D0002312F480522F682B6018
:1044400033D0606DA3895A0705D56368C01A636BC2
:104450000BB1236CC01A00230246E66A216A284683
:10446000B047431CA38906D129681D294BD82B4A84
:10447000CA40D60747D500226260D904226922606B
:1044800004D5421C01D12B6803B96065616B2F60B4
:104490000029CAD004F14403994202D0284600F012
:1044A00097F900206063BDE8F081216A0123284666
:1044B000B047411CC6D12B68002BC3D01D2B01D0A7
:1044C000162B01D12F60B0E7A38943F04003A381ED
:1044D000BDE8F0810F69002FA7D093070E6808BFD1
:1044E0004B690F6018BF0023A6EB07088B60B8F17B
:1044F000000F9ADD43463A46216AA66A2846B0472D
:10450000002807DCA38943F04003A3814FF0FF306C
:10451000BDE8F0810744A8EB0008E8E7010040206F
:1045200038B50B6905460C46DBB118B183690BB988
:1045300000F060F80C4B9C4209D16C68B4F90C3067
:104540007BB121462846BDE83840FFF761BF074BE5
:104550009C4201D1AC68F1E7054B9C4208BFEC6876
:10456000ECE7002038BD00BF405100086051000852
:1045700020510008014900F0A9B800BF21450008FA
:10458000002310B504460360436083608181436665
:10459000C281036143618361194608225C30FFF7E1
:1045A000DFFD054B6362054BA362054BE362054BE0
:1045B0002462236310BD00BF614F0008834F0008D1
:1045C000BB4F0008DF4F000870B54A1E68255543F1
:1045D0000E4605F1740100F049F9044640B100218E
:1045E00080E842000C30A06005F16802FFF7B8FDDA
:1045F000204670BD836910B5044633BB8364C36431
:104600000365124B124A1B688262984204BF012361
:10461000836100F01FF86060204600F01BF8A06086
:10462000204600F017F80022E06004216068FFF7E0
:10463000A7FF01220921A068FFF7A2FF0222122191
:10464000E068FFF79DFF0123A36110BD1C51000826
:1046500075450008F8B51C4B1E68B369074613B9C9
:104660003046FFF7C7FF4836B4687368013B03D58F
:10467000336833B13668F7E7B4F90C506DB168347C
:10468000F4E704213846FFF79FFF30600028F1D19E
:104690000C233B6004462046F8BD4FF6FF73E381D0
:1046A0000123A38165662560A5606560256165615C
:1046B000A5610822294604F15C00FFF751FD6563FE
:1046C000A563A564E564E6E71C5100082DE9F843FD
:1046D0008046894600F14804002614B93046BDE8FA
:1046E000F883A5686768013F01D52468F5E7AB89C1
:1046F000012B07D9B5F90E30013303D029464046C6
:10470000C84706436835EEE770B50E46B1F90E109E
:10471000002990B014461D4607DA00232B60B389A8
:104720001A0610D44FF480630EE001AA00F07EFC5C
:104730000028F2DB029A02F47042A2F500535A42BA
:104740005A412A60EEE740230020236010B070BD7C
:104750008B8973B59D0706460C4607D504F14703C0
:10476000236023610123636102B070BD01AB6A461F
:10477000FFF7CAFF00990546304600F077F848B9C0
:10478000B4F90C309A05EFD423F0030343F002038D
:10479000A381E3E70D4BB362A389206043F080035C
:1047A000A381009B6361019B20615BB1B4F90E1092
:1047B000304600F04DFC28B1A38923F0030343F0F9
:1047C0000103A381A3891D43A581CDE77545000899
:1047D00038B50546002945D051F8043C0C1F002B84
:1047E000B8BFE41800F056FC1F4A1368104633B9EE
:1047F000636014602846BDE8384000F04CBCA3421A
:104800000CD921686218934204BF1A685B68636020
:1048100004BF521822600460ECE713465A680AB1DC
:10482000A242FAD919685818A0420BD12068014455
:10483000581882421960DDD1106852685A600144EC
:104840001960D7E702D90C232B60D3E72068211821
:104850008A4204BF11685268626004BF091821606F
:104860005C60C7E738BD00BF9000002070B5CD1C6C
:1048700025F0030508350C2D38BF0C25002D064604
:1048800001DBA94203D90C233360002070BD00F086
:1048900001FC234A1468214691B9224C23681BB9B4
:1048A000304600F04DFB20602946304600F048FBC2
:1048B000431C26D10C233360304600F0ECFBE4E7C8
:1048C0000B685B1B1AD40B2B0FD90B60CD50CC1887
:1048D000304600F0E0FB04F10B00231D20F0070040
:1048E000C31A1BD05A42E25070BD8C420DBF6368A0
:1048F0004B686360136018BF0C46E9E70C464968D3
:10490000CAE7C41C24F00304A04205D0211A304693
:1049100000F016FB0130CDD02560D9E770BD00BF97
:1049200090000020940000209368013B002B10B4FD
:10493000936009DA9469A34202DBCBB20A2B03D15C
:104940005DF8044BFFF7A4BC1368581C1060197085
:10495000C8B25DF8044B7047F8B506460F461446DA
:10496000D518AC4201D1002007E03A4614F8011BEB
:104970003046FFF7D9FF431CF3D1F8BD2DE9F04FC6
:104980009DB00C4617460393064618B183690BB9D0
:10499000FFF730FE7C4B9C4257D17468A3891807FF
:1049A0005DD52369002B5AD00023099320238DF86D
:1049B000293030238DF82A304FF0010BB846454698
:1049C00015F8013B002B55D1B8EB070A0BD0534625
:1049D0003A4621463046FFF7BFFF013000F0C48061
:1049E000099B5344099398F80030002B00F0BC80D9
:1049F00000234FF0FF3204930793059206938DF83E
:104A000053301A93052229786048FBF7E9FB05F13A
:104A10000108049B002831D1D90644BF20228DF81B
:104A200053201A0744BF2B228DF853202A782A2AB4
:104A30002CD0079A00210A20A846013598F80030AA
:104A4000303B092B6DD971B326E0514B9C4201D10B
:104A5000B468A3E74F4B9C4208BFF4689EE7214629
:104A60003046FFF767FC00289ED04FF0FF301DB0A6
:104A7000BDE8F08F252BA7D0A846A0E7434A801AAF
:104A80000BFA00F0184304904546BBE7039A111D4A
:104A900012680391002A01DB079204E0524243F0BE
:104AA00002030792049398F800302E2B10D198F847
:104AB00001302A2B08F1010137D1039B1A1D1B6815
:104AC0000392002BB8BF4FF0FF3308F102080593A3
:104AD000314D98F8001003222846FBF781FB40B1C6
:104AE0004023401B03FA00F0049B0343049308F1A6
:104AF000010898F8001029488DF82810062208F1BE
:104B00000107FBF76DFB002834D0254B03BB039B4B
:104B1000073323F0070308330393099B4B4409939E
:104B20004CE700FB0232012186E70023059318467B
:104B30000A258846013198F80020303A092A03D91D
:104B4000002BC5D00590C3E705FB00200123F0E74B
:104B500003AB00932246134B04A93046AFF3008009
:104B6000B0F1FF3F8146D8D1A3895B063FF57DAF09
:104B700009987CE703AB009322460A4B04A9304610
:104B800000F088F8ECE700BF4051000880510008B1
:104B90006051000820510008865100088A51000821
:104BA00000000000594900082DE9F04791461F46D2
:104BB0008A680B69DDF820809342B8BF1346C9F8B4
:104BC000003091F8432006460C4612B10133C9F873
:104BD00000302368990642BFD9F800300233C9F883
:104BE0000030256815F0060507D104F1190AE368BD
:104BF000D9F800209B1A9D4229DB94F843302268A3
:104C0000003318BF012392062ED404F14302394623
:104C10003046C047013021D02368E568D9F800202C
:104C200003F00603042B08BFAD1AA36822690CBF6A
:104C300025EAE57500259342C4BF9B1AED184FF095
:104C400000091A344D451BD10020BDE8F08701232F
:104C5000524639463046C047013003D14FF0FF304D
:104C6000BDE8F0870135C2E7E1185A1C302081F811
:104C70004300224494F8451082F843100233C4E7FD
:104C80000123224639463046C0470130E6D009F1BB
:104C90000109D7E72DE9F04317460A7E85B06E2A51
:104CA000984606460C460C9B01F1430E00F0BC8072
:104CB0001AD8632A2ED00AD8002A00F0C880582AB1
:104CC00000F08A8004F1420584F842202AE0642A38
:104CD00001D0692AF6D121681A6811F0800F23D01B
:104CE000111D1960136827E0732A00F0B48008D8FA
:104CF0006F2A2AD0702AE5D10A6842F020020A60A1
:104D000003E0752A21D0782ADCD1782284F8452066
:104D10006E4964E01A6801F14205111D19601368BB
:104D200084F842300123A3E011F0400F02F10401A6
:104D30001960D7D0B2F90030002B03DA2D225B4284
:104D400084F8432062490A2217E02068196810F0AD
:104D5000800F03D0081D18600B6806E010F0400FAC
:104D600001F104001860F7D00B8859496F2A14BF6D
:104D70000A220822002084F843006568A560002DFF
:104D8000C0F29C80206820F004002060002B3FD1FE
:104D9000002D40F095807546082A0BD12368DA076C
:104DA00008D5236962689A42DEBF302305F8013CCA
:104DB00005F1FF35AEEB05032361CDF800803B46DE
:104DC00003AA21463046FFF7EFFE013055D14FF0E0
:104DD000FF3005B0BDE8F08381F845203C492268EA
:104DE000186812F0800F00F104051D6001D00368FF
:104DF00002E05506FBD50388D00744BF42F02002ED
:104E000022601BB9226822F0200222601022B1E742
:104E10007546B3FBF2F002FB1033CB5C05F8013DA5
:104E200003460028F5D1B7E708681A68496910F009
:104E3000800F04D0101D18601368196007E010F08F
:104E4000400F02F1040018601368F6D019800023A7
:104E500023617546B1E71A68111D1960156862680B
:104E600000212846FBF7BCF908B1401B606063686D
:104E70002361002384F843309FE723692A4639469B
:104E80003046C0470130A2D023689B0707D50025D4
:104E900004F11909E368039A9B1A9D4205DBE06857
:104EA000039B9842B8BF184693E701234A46394608
:104EB0003046C04701308AD00135EBE7002BA7D13F
:104EC0000B7884F8423004F1420565E7A2510008EE
:104ED0009151000870B50D461446064618B1836915
:104EE0000BB9FFF787FB134B9C4212D17468A36880
:104EF000013B002BA36016DAA269934202DBEBB2FE
:104F00000A2B10D1224629463046BDE87040FFF7F3
:104F1000BFB9094B9C4201D1B468E8E7074B9C42FA
:104F200008BFF468E3E723685A1C22601D70E8B2EA
:104F300070BD00BF405100086051000820510008BA
:104F400038B5064C0023054608462360FBF766FB90
:104F5000431C02D1236803B12B6038BDB40100208B
:104F600010B50C46B1F90E1000F096F80028ABBF52
:104F7000636DA3891B1823F48053ACBF6365A381C1
:104F800010BD2DE9F0411F468B89DB0505460C4617
:104F9000164605D502230022B1F90E1000F068F87C
:104FA000A389B4F90E1023F48053A38132463B4603
:104FB0002846BDE8F04100F017B810B50C46B1F92D
:104FC0000E1000F055F8431CA38915BF606523F44B
:104FD000805343F48053A38118BFA38110BDB1F95E
:104FE0000E1000F013B8000038B5074C054608460F
:104FF0001146002222601A46FBF7F0FD431C02D145
:10500000236803B12B6038BDB401002038B5064CCD
:105010000023054608462360FBF72CFB431C02D106
:10502000236803B12B6038BDB401002038B5074CAC
:1050300000230546084611462360FBF727FB431C67
:1050400002D1236803B12B6038BD00BFB40100203A
:1050500038B5064C0023054608462360FBF726FBBF
:10506000431C02D1236803B12B6038BDB40100207A
:1050700038B5074C054608461146002222601A46FC
:10508000FBF71FFB431C02D1236803B12B6038BD23
:10509000B40100207047704738B5074C05460846F4
:1050A0001146002222601A46FBF79BFA431C02D1EC
:1050B000236803B12B6038BDB4010020F8B500BFF0
:1050C000F8BC08BC9E467047F8B500BFF8BC08BCE9
:0450D0009E46704741
:1050D4004348303A256420004348313A256420008F
:1050E4004348323A256420004348333A256420007B
:1050F400656E64206F66207768696C6528312900C5
:105104000000000000000000010203040607080973
:105114000000000001020304100000200000000051
:10512400000000000000000000000000000000007B
:10513400000000000000000000000000000000006B
:10514400000000000000000000000000000000005B
:10515400000000000000000000000000000000004B
:10516400000000000000000000000000000000003B
:10517400000000000000000000000000232D302B80
:105184002000686C4C006566674546470030313244
:10519400333435363738394142434445460030319B
:1051A40032333435363738396162636465660000FA
:0851B400FCB0FF7F01000000C8
:0451BC00C501000821
:0451C000A101000841
:1051C4000024F40010000000010000001000002082
:1051D4000000000040510008605100082051000800
:1051E40000000000000000000000000000000000BB
:1051F40000000000000000000000000000000000AB
:10520400000000000000000000000000000000009A
:10521400000000000000000000000000000000008A
:10522400000000000000000000000000000000007A
:040000050800059159
:00000001FF
